{
  "address": "0x4173058ff62d69814c83ca154294BbD7c9B8A87B",
  "abi": [
    {
      "inputs": [
        {
          "internalType": "contract SplitJoin16Verifier",
          "name": "_splitJoinVerifier",
          "type": "address"
        },
        {
          "internalType": "contract Hash2Verifier",
          "name": "_hash2Verifier",
          "type": "address"
        },
        {
          "internalType": "contract NoteVerifier",
          "name": "_noteVerifier",
          "type": "address"
        },
        {
          "internalType": "contract IERC20",
          "name": "_usdc",
          "type": "address"
        }
      ],
      "stateMutability": "nonpayable",
      "type": "constructor"
    },
    {
      "anonymous": false,
      "inputs": [
        {
          "indexed": false,
          "internalType": "Field",
          "name": "commitment",
          "type": "uint256"
        }
      ],
      "name": "NewCommitment",
      "type": "event"
    },
    {
      "anonymous": false,
      "inputs": [
        {
          "indexed": false,
          "internalType": "Field",
          "name": "commitment",
          "type": "uint256"
        }
      ],
      "name": "NullifierSpent",
      "type": "event"
    },
    {
      "inputs": [],
      "name": "INIT_CODE_HASH",
      "outputs": [
        {
          "internalType": "bytes32",
          "name": "",
          "type": "bytes32"
        }
      ],
      "stateMutability": "view",
      "type": "function"
    },
    {
      "inputs": [],
      "name": "ROOT_HISTORY_SIZE",
      "outputs": [
        {
          "internalType": "uint32",
          "name": "",
          "type": "uint32"
        }
      ],
      "stateMutability": "view",
      "type": "function"
    },
    {
      "inputs": [],
      "name": "ZERO_COMMITMENT",
      "outputs": [
        {
          "internalType": "Field",
          "name": "",
          "type": "uint256"
        }
      ],
      "stateMutability": "view",
      "type": "function"
    },
    {
      "inputs": [],
      "name": "ZERO_NULLIFIER",
      "outputs": [
        {
          "internalType": "Field",
          "name": "",
          "type": "uint256"
        }
      ],
      "stateMutability": "view",
      "type": "function"
    },
    {
      "inputs": [],
      "name": "ZERO_ROOT",
      "outputs": [
        {
          "internalType": "Field",
          "name": "",
          "type": "uint256"
        }
      ],
      "stateMutability": "view",
      "type": "function"
    },
    {
      "inputs": [],
      "name": "allNoteCommitments",
      "outputs": [
        {
          "internalType": "Field[]",
          "name": "",
          "type": "uint256[]"
        }
      ],
      "stateMutability": "view",
      "type": "function"
    },
    {
      "inputs": [
        {
          "internalType": "contract IERC20",
          "name": "token",
          "type": "address"
        },
        {
          "internalType": "uint256",
          "name": "balance",
          "type": "uint256"
        },
        {
          "internalType": "Field",
          "name": "salt",
          "type": "uint256"
        },
        {
          "internalType": "bytes",
          "name": "stealthAddressOwnershipZkProof",
          "type": "bytes"
        },
        {
          "internalType": "Field",
          "name": "noteCommitment",
          "type": "uint256"
        },
        {
          "internalType": "bytes",
          "name": "noteCreationZkProof",
          "type": "bytes"
        }
      ],
      "name": "collect",
      "outputs": [],
      "stateMutability": "nonpayable",
      "type": "function"
    },
    {
      "inputs": [
        {
          "internalType": "Field",
          "name": "salt",
          "type": "uint256"
        }
      ],
      "name": "compute",
      "outputs": [
        {
          "internalType": "address",
          "name": "stealthAddress",
          "type": "address"
        }
      ],
      "stateMutability": "view",
      "type": "function"
    },
    {
      "inputs": [],
      "name": "currentRootIndex",
      "outputs": [
        {
          "internalType": "uint32",
          "name": "",
          "type": "uint32"
        }
      ],
      "stateMutability": "view",
      "type": "function"
    },
    {
      "inputs": [
        {
          "internalType": "uint256",
          "name": "amount",
          "type": "uint256"
        },
        {
          "internalType": "Field",
          "name": "noteCommitment",
          "type": "uint256"
        },
        {
          "internalType": "bytes",
          "name": "proof",
          "type": "bytes"
        }
      ],
      "name": "deposit",
      "outputs": [],
      "stateMutability": "nonpayable",
      "type": "function"
    },
    {
      "inputs": [
        {
          "internalType": "uint256",
          "name": "",
          "type": "uint256"
        }
      ],
      "name": "filledSubtrees",
      "outputs": [
        {
          "internalType": "Field",
          "name": "",
          "type": "uint256"
        }
      ],
      "stateMutability": "view",
      "type": "function"
    },
    {
      "inputs": [],
      "name": "getLastRoot",
      "outputs": [
        {
          "internalType": "Field",
          "name": "",
          "type": "uint256"
        }
      ],
      "stateMutability": "view",
      "type": "function"
    },
    {
      "inputs": [],
      "name": "hash2Verifier",
      "outputs": [
        {
          "internalType": "contract Hash2Verifier",
          "name": "",
          "type": "address"
        }
      ],
      "stateMutability": "view",
      "type": "function"
    },
    {
      "inputs": [
        {
          "internalType": "Field",
          "name": "root",
          "type": "uint256"
        }
      ],
      "name": "isKnownRoot",
      "outputs": [
        {
          "internalType": "bool",
          "name": "",
          "type": "bool"
        }
      ],
      "stateMutability": "view",
      "type": "function"
    },
    {
      "inputs": [
        {
          "internalType": "Field",
          "name": "nullifier",
          "type": "uint256"
        }
      ],
      "name": "isNoteSpent",
      "outputs": [
        {
          "internalType": "bool",
          "name": "isSpent",
          "type": "bool"
        }
      ],
      "stateMutability": "view",
      "type": "function"
    },
    {
      "inputs": [],
      "name": "levels",
      "outputs": [
        {
          "internalType": "uint32",
          "name": "",
          "type": "uint32"
        }
      ],
      "stateMutability": "view",
      "type": "function"
    },
    {
      "inputs": [],
      "name": "nextIndex",
      "outputs": [
        {
          "internalType": "uint32",
          "name": "",
          "type": "uint32"
        }
      ],
      "stateMutability": "view",
      "type": "function"
    },
    {
      "inputs": [
        {
          "internalType": "uint256",
          "name": "",
          "type": "uint256"
        }
      ],
      "name": "noteCommitments",
      "outputs": [
        {
          "internalType": "Field",
          "name": "",
          "type": "uint256"
        }
      ],
      "stateMutability": "view",
      "type": "function"
    },
    {
      "inputs": [],
      "name": "noteCommitmentsLength",
      "outputs": [
        {
          "internalType": "uint256",
          "name": "",
          "type": "uint256"
        }
      ],
      "stateMutability": "view",
      "type": "function"
    },
    {
      "inputs": [
        {
          "internalType": "uint256",
          "name": "start",
          "type": "uint256"
        },
        {
          "internalType": "uint256",
          "name": "length",
          "type": "uint256"
        }
      ],
      "name": "noteCommitmentsPaginated",
      "outputs": [
        {
          "internalType": "Field[]",
          "name": "",
          "type": "uint256[]"
        }
      ],
      "stateMutability": "view",
      "type": "function"
    },
    {
      "inputs": [],
      "name": "noteVerifier",
      "outputs": [
        {
          "internalType": "contract NoteVerifier",
          "name": "",
          "type": "address"
        }
      ],
      "stateMutability": "view",
      "type": "function"
    },
    {
      "inputs": [
        {
          "internalType": "uint256",
          "name": "",
          "type": "uint256"
        }
      ],
      "name": "roots",
      "outputs": [
        {
          "internalType": "Field",
          "name": "",
          "type": "uint256"
        }
      ],
      "stateMutability": "view",
      "type": "function"
    },
    {
      "inputs": [],
      "name": "splitJoinVerifier",
      "outputs": [
        {
          "internalType": "contract SplitJoin16Verifier",
          "name": "",
          "type": "address"
        }
      ],
      "stateMutability": "view",
      "type": "function"
    },
    {
      "inputs": [
        {
          "internalType": "bytes",
          "name": "proof",
          "type": "bytes"
        },
        {
          "internalType": "Field[]",
          "name": "publicInputs",
          "type": "uint256[]"
        }
      ],
      "name": "transact",
      "outputs": [],
      "stateMutability": "nonpayable",
      "type": "function"
    },
    {
      "inputs": [],
      "name": "usdc",
      "outputs": [
        {
          "internalType": "contract IERC20",
          "name": "",
          "type": "address"
        }
      ],
      "stateMutability": "view",
      "type": "function"
    },
    {
      "inputs": [
        {
          "internalType": "uint256",
          "name": "i",
          "type": "uint256"
        }
      ],
      "name": "zeros",
      "outputs": [
        {
          "internalType": "Field",
          "name": "",
          "type": "uint256"
        }
      ],
      "stateMutability": "pure",
      "type": "function"
    }
  ],
  "transactionHash": "0x1082839ba335a8291feabe9896392c2a58aeeb9b5519352ed32093e504a2b52d",
  "args": [
    "0x4298B6a7E18A55996697DDD009BbD5BeEADF199F",
    "0xB34505B7fcfA024B5ADE57691BCD96F0778df5BA",
    "0x392c24C5E511f1605016989A56f04f009e52D043",
    "0xb7561b08648B658171dD2a8E2b4f1Ee99E9D49c8"
  ],
  "numDeployments": 1,
  "solcInputHash": "357bee568abce034a39745d68d804125",
  "bytecode": "0x6080604052600380546001600160401b03191690553480156200002157600080fd5b50604051620075e3380380620075e3833981016040819052620000449162002b88565b601062000055565b60405180910390fd5b60208163ffffffff161115620000b85760405162461bcd60e51b815260206004820152602160248201527f5f6c6576656c732073686f756c64206265206c657373207468616e20657120336044820152601960f91b60648201526084016200004c565b6000805463ffffffff191663ffffffff83161781555b8163ffffffff168163ffffffff1610156200011757620000f463ffffffff82166200022d565b63ffffffff821660009081526001602081905260409091209190915501620000ce565b50620001356200012960018362002c06565b63ffffffff166200022d565b60026020527fac33ff75c19e70fe83507db0d683fd3465c996598dc972688b7ace676c89077b5550600480546001600160a01b038087166001600160a01b03199283161790925560058054868416908316179055600680548584169216919091179055600380549183166801000000000000000002600160401b600160e01b0319909216919091179055600880546001810182556000919091527f0ecc1f56d6a29051a511ea4b08361649d190b7f7525a9d4ed36b9041e127207a7ff3f7a9fe364faab93b216da50a3214154f22a0a2b415b23a84c8169e8b636ee3909101819055620002229062000889565b505050505062002e48565b6000816000036200024057506000919050565b816001036200027057507f0b63a53787021a4a962a452c2921b3663aff1ffd8d5510540f8e659e782956f1919050565b81600203620002a057507f0e34ac2c09f45a503d2908bcb12f1cbae5fa4065759c88d501c097506a8b2290919050565b81600303620002d057507f21f9172d72fdcdafc312eee05cf5092980dda821da5b760a9fb8dbdf607c8a20919050565b816004036200030057507f2373ea368857ec7af97e7b470d705848e2bf93ed7bef142a490f2119bcf82d8e919050565b816005036200033057507f120157cfaaa49ce3da30f8b47879114977c24b266d58b0ac18b325d878aafddf919050565b816006036200036057507f01c28fe1059ae0237b72334700697bdf465e03df03986fe05200cadeda66bd76919050565b816007036200039057507f2d78ed82f93b61ba718b17c2dfe5b52375b4d37cbbed6f1fc98b47614b0cf21b919050565b81600803620003c057507f067243231eddf4222f3911defbba7705aff06ed45960b27f6f91319196ef97e1919050565b81600903620003f057507f1849b85f3c693693e732dfc4577217acc18295193bede09ce8b97ad910310972919050565b81600a036200042057507f2a775ea761d20435b31fa2c33ff07663e24542ffb9e7b293dfce3042eb104686919050565b81600b036200045057507f0f320b0703439a8114f81593de99cd0b8f3b9bf854601abb5b2ea0e8a3dda4a7919050565b81600c036200048057507f0d07f6e7a8a0e9199d6d92801fff867002ff5b4808962f9da2ba5ce1bdd26a73919050565b81600d03620004b057507f1c4954081e324939350febc2b918a293ebcdaead01be95ec02fcbe8d2c1635d1919050565b81600e03620004e057507f0197f2171ef99c2d053ee1fb5ff5ab288d56b9b41b4716c9214a4d97facc4c4a919050565b81600f036200051057507f2b9cdd484c5ba1e4d6efcc3f18734b5ac4c4a0b9102e2aeb48521a661d3feee9919050565b816010036200054057507f14f44d672eb357739e42463497f9fdac46623af863eea4d947ca00a497dcdeb3919050565b816011036200057057507f071d7627ae3b2eabda8a810227bf04206370ac78dbf6c372380182dbd3711fe3919050565b81601203620005a057507f2fdc08d9fe075ac58cb8c00f98697861a13b3ab6f9d41a4e768f75e477475bf5919050565b81601303620005d057507f20165fe405652104dceaeeca92950aa5adc571b8cafe192878cba58ff1be49c5919050565b816014036200060057507f1c8c3ca0b3a3d75850fcd4dc7bf1e3445cd0cfff3ca510630fd90b47e8a24755919050565b816015036200063057507f1f0c1a8fb16b0d2ac9a146d7ae20d8d179695a92a79ed66fc45d9da4532459b3919050565b816016036200066057507f038146ec5a2573e1c30d2fb32c66c8440f426fbd108082df41c7bebd1d521c30919050565b816017036200069057507f17d3d12b17fe762de4b835b2180b012e808816a7f2ff69ecb9d65188235d8fd4919050565b81601803620006c057507f0e1a6b7d63a6e5a9e54e8f391dd4e9d49cdfedcbc87f02cd34d4641d2eb30491919050565b81601903620006f057507f09244eec34977ff795fc41036996ce974136377f521ac8eb9e04642d204783d2919050565b81601a036200072057507f1646d6f544ec36df9dc41f778a7ef1690a53c730b501471b6acd202194a7e8e9919050565b81601b036200075057507f064769603ba3f6c41f664d266ecb9a3a0f6567cd3e48b40f34d4894ee4c361b3919050565b81601c036200078057507f1595bb3cd19f84619dc2e368175a88d8627a7439eda9397202cdb1167531fd3f919050565b81601d03620007b057507f2a529be462b81ca30265b558763b1498289c9d88277ab14f0838cb1fce4b472c919050565b81601e03620007e057507f0c08da612363088ad0bbc78abd233e8ace4c05a56fdabdd5e5e9b05e428bdaee919050565b81601f036200081057507f14748d0241710ef47f54b931ac5a58082b1d56b0f0c30d55fb71a6e8c9a6be14919050565b816020036200084057507f0b59baa35b9dc267744f0ccb4e3b0255c1fc512460d91130c6bc19fb2668568d919050565b60405162461bcd60e51b815260206004820152601360248201527f496e646578206f7574206f6620626f756e64730000000000000000000000000060448201526064016200004c565b60035460008054909163ffffffff640100000000909104811691620008b19116600262002d56565b63ffffffff168163ffffffff1603620009265760405162461bcd60e51b815260206004820152603060248201527f4d65726b6c6520747265652069732066756c6c2e204e6f206d6f7265206c656160448201526f1d995cc818d85b88189948185919195960821b60648201526084016200004c565b8083600080805b60005463ffffffff9081169082161015620009d3576200094f60028662002d83565b63ffffffff1660000362000991578392506200097163ffffffff82166200022d565b63ffffffff821660009081526001602052604090208590559150620009ad565b63ffffffff811660009081526001602052604090205492508391505b620009b9838362000a66565b9350620009c860028662002da9565b94506001016200092d565b50600354600090601e90620009f09063ffffffff16600162002dcf565b620009fc919062002d83565b6003805463ffffffff191663ffffffff83169081179091556000908152600260205260409020859055905062000a3486600162002dcf565b6003805463ffffffff929092166401000000000263ffffffff60201b1990921691909117905550939695505050505050565b60408051600280825260608201835260009283929190602083019080368337019050509050838160008151811062000aa25762000aa262002def565b602002602001018181525050828160018151811062000ac55762000ac562002def565b602090810291909101015262000ae962000ade62000af3565b8260026000620020e5565b9150505b92915050565b62000afd62002a91565b604051806040016040528060405180608001604052807f10dc6e9c006ea38b04b1e03b4bd9490c0d03f98929ca1d7fb56821fd19d3b6e781526020017f0c28145b6a44df3e0149b3d0a30b3bb599df9756d4dd9b84a86b38cfb45a740b81526020017e544b8338791518b2c7645a50392798b21f75bb60e3596170067d00141cac1581526020017f222c01175718386f2e2e82eb122789e352e105a3b8fa852613bc534433ee428b815250815260200160405180610800016040528060405180608001604052807f19b849f69450b06848da1d39bd5e4a4302bb86744edc26238b0878e269ed23e581526020017f265ddfe127dd51bd7239347b758f0a1320eb2cc7450acc1dad47f80c8dcf34d681526020017f199750ec472f1809e0f66a545e1e51624108ac845015c2aa3dfc36bab497d8aa81526020017f157ff3fe65ac7208110f06a5f74302b14d743ea25067f0ffd032f787c7f1cdf8815250815260200160405180608001604052807f2e49c43c4569dd9c5fd35ac45fca33f10b15c590692f8beefe18f4896ac9490281526020017f0e35fb89981890520d4aef2b6d6506c3cb2f0b6973c24fa82731345ffa2d1f1e81526020017f251ad47cb15c4f1105f109ae5e944f1ba9d9e7806d667ffec6fe723002e0b99681526020017f13da07dc64d428369873e97160234641f8beb56fdd05e5f3563fa39d9c22df4e815250815260200160405180608001604052807f0c009b84e650e6d23dc00c7dccef7483a553939689d350cd46e7b89055fd473881526020017f011f16b1c63a854f01992e3956f42d8b04eb650c6d535eb0203dec74befdca0681526020017f0ed69e5e383a688f209d9a561daa79612f3f78d0467ad45485df07093f36754981526020017f04dba94a7b0ce9e221acad41472b6bbe3aec507f5eb3d33f463672264c9f789b815250815260200160405180608001604052807f0a3f2637d840f3a16eb094271c9d237b6036757d4bb50bf7ce732ff1d4fa28e881526020017f259a666f129eea198f8a1c502fdb38fa39b1f075569564b6e54a485d1182323f81526020017f28bf7459c9b2f4c6d8e7d06a4ee3a47f7745d4271038e5157a32fdf7ede0d6a181526020017f0a1ca941f057037526ea200f489be8d4c37c85bbcce6a2aeec91bd6941432447815250815260200160405180608001604052807f0c6f8f958be0e93053d7fd4fc54512855535ed1539f051dcb43a26fd926361cf815260200160008152602001600081526020016000815250815260200160405180608001604052807f123106a93cd17578d426e8128ac9d90aa9e8a00708e296e084dd57e69caaf811815260200160008152602001600081526020016000815250815260200160405180608001604052807f26e1ba52ad9285d97dd3ab52f8e840085e8fa83ff1e8f1877b074867cd2dee75815260200160008152602001600081526020016000815250815260200160405180608001604052807f1cb55cad7bd133de18a64c5c47b9c97cbe4d8b7bf9e095864471537e6a4ae2c5815260200160008152602001600081526020016000815250815260200160405180608001604052807f1dcd73e46acd8f8e0e2c7ce04bde7f6d2a53043d5060a41c7143f08e6e9055d0815260200160008152602001600081526020016000815250815260200160405180608001604052807f011003e32f6d9c66f5852f05474a4def0cda294a0eb4e9b9b12b9bb4512e5574815260200160008152602001600081526020016000815250815260200160405180608001604052807f2b1e809ac1d10ab29ad5f20d03a57dfebadfe5903f58bafed7c508dd2287ae8c815260200160008152602001600081526020016000815250815260200160405180608001604052807f2539de1785b735999fb4dac35ee17ed0ef995d05ab2fc5faeaa69ae87bcec0a5815260200160008152602001600081526020016000815250815260200160405180608001604052807f0c246c5a2ef8ee0126497f222b3e0a0ef4e1c3d41c86d46e43982cb11d77951d815260200160008152602001600081526020016000815250815260200160405180608001604052807f192089c4974f68e95408148f7c0632edbb09e6a6ad1a1c2f3f0305f5d03b527b815260200160008152602001600081526020016000815250815260200160405180608001604052807f1eae0ad8ab68b2f06a0ee36eeb0d0c058529097d91096b756d8fdc2fb5a60d85815260200160008152602001600081526020016000815250815260200160405180608001604052807f179190e5d0e22179e46f8282872abc88db6e2fdc0dee99e69768bd98c5d06bfb815260200160008152602001600081526020016000815250815260200160405180608001604052807f29bb9e2c9076732576e9a81c7ac4b83214528f7db00f31bf6cafe794a9b3cd1c815260200160008152602001600081526020016000815250815260200160405180608001604052807f225d394e42207599403efd0c2464a90d52652645882aac35b10e590e6e691e08815260200160008152602001600081526020016000815250815260200160405180608001604052807f064760623c25c8cf753d238055b444532be13557451c087de09efd454b23fd59815260200160008152602001600081526020016000815250815260200160405180608001604052807f10ba3a0e01df92e87f301c4b716d8a394d67f4bf42a75c10922910a78f6b5b87815260200160008152602001600081526020016000815250815260200160405180608001604052807f0e070bf53f8451b24f9c6e96b0c2a801cb511bc0c242eb9d361b77693f21471c815260200160008152602001600081526020016000815250815260200160405180608001604052807f1b94cd61b051b04dd39755ff93821a73ccd6cb11d2491d8aa7f921014de252fb815260200160008152602001600081526020016000815250815260200160405180608001604052807f1d7cb39bafb8c744e148787a2e70230f9d4e917d5713bb050487b5aa7d74070b815260200160008152602001600081526020016000815250815260200160405180608001604052807f2ec93189bd1ab4f69117d0fe980c80ff8785c2961829f701bb74ac1f303b17db815260200160008152602001600081526020016000815250815260200160405180608001604052807f2db366bfdd36d277a692bb825b86275beac404a19ae07a9082ea46bd83517926815260200160008152602001600081526020016000815250815260200160405180608001604052807f062100eb485db06269655cf186a68532985275428450359adc99cec6960711b8815260200160008152602001600081526020016000815250815260200160405180608001604052807f0761d33c66614aaa570e7f1e8244ca1120243f92fa59e4f900c567bf41f5a59b815260200160008152602001600081526020016000815250815260200160405180608001604052807f20fc411a114d13992c2705aa034e3f315d78608a0f7de4ccf7a72e494855ad0d815260200160008152602001600081526020016000815250815260200160405180608001604052807f25b5c004a4bdfcb5add9ec4e9ab219ba102c67e8b3effb5fc3a30f317250bc5a815260200160008152602001600081526020016000815250815260200160405180608001604052807f23b1822d278ed632a494e58f6df6f5ed038b186d8474155ad87e7dff62b37f4b815260200160008152602001600081526020016000815250815260200160405180608001604052807f22734b4c5c3f9493606c4ba9012499bf0f14d13bfcfcccaa16102a29cc2f69e0815260200160008152602001600081526020016000815250815260200160405180608001604052807f26c0c8fe09eb30b7e27a74dc33492347e5bdff409aa3610254413d3fad795ce5815260200160008152602001600081526020016000815250815260200160405180608001604052807f070dd0ccb6bd7bbae88eac03fa1fbb26196be3083a809829bbd626df348ccad9815260200160008152602001600081526020016000815250815260200160405180608001604052807f12b6595bdb329b6fb043ba78bb28c3bec2c0a6de46d8c5ad6067c4ebfd4250da815260200160008152602001600081526020016000815250815260200160405180608001604052807f248d97d7f76283d63bec30e7a5876c11c06fca9b275c671c5e33d95bb7e8d729815260200160008152602001600081526020016000815250815260200160405180608001604052807f1a306d439d463b0816fc6fd64cc939318b45eb759ddde4aa106d15d9bd9baaaa815260200160008152602001600081526020016000815250815260200160405180608001604052807f28a8f8372e3c38daced7c00421cb4621f4f1b54ddc27821b0d62d3d6ec7c56cf815260200160008152602001600081526020016000815250815260200160405180608001604052807e94975717f9a8a8bb35152f24d43294071ce320c829f388bc852183e1e2ce7e815260200160008152602001600081526020016000815250815260200160405180608001604052807f04d5ee4c3aa78f7d80fde60d716480d3593f74d4f653ae83f4103246db2e8d65815260200160008152602001600081526020016000815250815260200160405180608001604052807f2a6cf5e9aa03d4336349ad6fb8ed2269c7bef54b8822cc76d08495c12efde187815260200160008152602001600081526020016000815250815260200160405180608001604052807f2304d31eaab960ba9274da43e19ddeb7f792180808fd6e43baae48d7efcba3f3815260200160008152602001600081526020016000815250815260200160405180608001604052807f03fd9ac865a4b2a6d5e7009785817249bff08a7e0726fcb4e1c11d39d199f0b0815260200160008152602001600081526020016000815250815260200160405180608001604052807eb7258ded52bbda2248404d55ee5044798afc3a209193073f7954d4d63b0b64815260200160008152602001600081526020016000815250815260200160405180608001604052807f159f81ada0771799ec38fca2d4bf65ebb13d3a74f3298db36272c5ca65e92d9a815260200160008152602001600081526020016000815250815260200160405180608001604052807f1ef90e67437fbc8550237a75bc28e3bb9000130ea25f0c5471e144cf4264431f815260200160008152602001600081526020016000815250815260200160405180608001604052807f1e65f838515e5ff0196b49aa41a2d2568df739bc176b08ec95a79ed82932e30d815260200160008152602001600081526020016000815250815260200160405180608001604052807f2b1b045def3a166cec6ce768d079ba74b18c844e570e1f826575c1068c94c33f815260200160008152602001600081526020016000815250815260200160405180608001604052807f0832e5753ceb0ff6402543b1109229c165dc2d73bef715e3f1c6e07c168bb173815260200160008152602001600081526020016000815250815260200160405180608001604052807f02f614e9cedfb3dc6b762ae0a37d41bab1b841c2e8b6451bc5a8e3c390b6ad16815260200160008152602001600081526020016000815250815260200160405180608001604052807f0e2427d38bd46a60dd640b8e362cad967370ebb777bedff40f6a0be27e7ed705815260200160008152602001600081526020016000815250815260200160405180608001604052807f0493630b7c670b6deb7c84d414e7ce79049f0ec098c3c7c50768bbe29214a53a815260200160008152602001600081526020016000815250815260200160405180608001604052807f22ead100e8e482674decdab17066c5a26bb1515355d5461a3dc06cc85327cea9815260200160008152602001600081526020016000815250815260200160405180608001604052807f25b3e56e655b42cdaae2626ed2554d48583f1ae35626d04de5084e0b6d2a6f16815260200160008152602001600081526020016000815250815260200160405180608001604052807f1e32752ada8836ef5837a6cde8ff13dbb599c336349e4c584b4fdc0a0cf6f9d0815260200160008152602001600081526020016000815250815260200160405180608001604052807f2fa2a871c15a387cc50f68f6f3c3455b23c00995f05078f672a9864074d412e5815260200160008152602001600081526020016000815250815260200160405180608001604052807f2f569b8a9a4424c9278e1db7311e889f54ccbf10661bab7fcd18e7c7a7d83505815260200160008152602001600081526020016000815250815260200160405180608001604052807f044cb455110a8fdd531ade530234c518a7df93f7332ffd2144165374b246b43d815260200160008152602001600081526020016000815250815260200160405180608001604052807f227808de93906d5d420246157f2e42b191fe8c90adfe118178ddc723a5319025815260200160008152602001600081526020016000815250815260200160405180608001604052807f02fcca2934e046bc623adead873579865d03781ae090ad4a8579d2e7a6800355815260200160008152602001600081526020016000815250815260200160405180608001604052807f0ef915f0ac120b876abccceb344a1d36bad3f3c5ab91a8ddcbec2e060d8befac815260200160008152602001600081526020016000815250815260200160405180608001604052807f1797130f4b7a3e1777eb757bc6f287f6ab0fb85f6be63b09f3b16ef2b1405d3881526020017f0a76225dc04170ae3306c85abab59e608c7f497c20156d4d36c668555decc6e581526020017f1fffb9ec1992d66ba1e77a7b93209af6f8fa76d48acb664796174b5326a31a5c81526020017f25721c4fc15a3f2853b57c338fa538d85f8fbba6c6b9c6090611889b797b9c5f815250815260200160405180608001604052807f0c817fd42d5f7a41215e3d07ba197216adb4c3790705da95eb63b982bfcaf75a81526020017f13abe3f5239915d39f7e13c2c24970b6df8cf86ce00a22002bc15866e52b5a9681526020017f2106feea546224ea12ef7f39987a46c85c1bc3dc29bdbd7a92cd60acb4d391ce81526020017f21ca859468a746b6aaa79474a37dab49f1ca5a28c748bc7157e1b3345bb0f959815250815260200160405180608001604052807f05ccd6255c1e6f0c5cf1f0df934194c62911d14d0321662a8f1a48999e34185b81526020017f0f0e34a64b70a626e464d846674c4c8816c4fb267fe44fe6ea28678cb09490a481526020017f0558531a4e25470c6157794ca36d0e9647dbfcfe350d64838f5b1a8a2de0d4bf81526020017f09d3dca9173ed2faceea125157683d18924cadad3f655a60b72f5864961f1455815250815260200160405180608001604052807f0328cbd54e8c0913493f866ed03d218bf23f92d68aaec48617d4c722e5bd433581526020017f2bf07216e2aff0a223a487b1a7094e07e79e7bcc9798c648ee3347dd5329d34b81526020017f1daf345a58006b736499c583cb76c316d6f78ed6a6dffc82111e11a63fe412df81526020017f176563472456aaa746b694c60e1823611ef39039b2edc7ff391e6f2293d2c404815250815250815250905090565b60008062002105620020fe86516200218160201b60201c565b8762002187565b905060005b85518110156200215757848110156200214e576200214e86828151811062002136576200213662002def565b6020026020010151836200222e60201b90919060201c565b6001016200210a565b5082156200216c576200216c8160016200222e565b6200217781620022ec565b9695505050505050565b60401b90565b6200219162002aba565b60006040518060c0016040528085815260200160405180606001604052806000815260200160008152602001600081525081526020016040518060800160405280600081526020016000815260200160008152602001600081525081526020016000815260200160001515815260200184815250905083816040015160036004811062002222576200222262002def565b60200201529392505050565b816080015115801562002245575060038260600151145b156200226757620022568262002448565b506020820151526001606090910152565b81608001511580156200227f57506003826060015114155b15620022c657808260200151836060015160038110620022a357620022a362002def565b602002015260608201805160019190620022bf90839062002e05565b9052505050565b816080015115620022e857602082015181905260016060830152600060808301525b5050565b6000816080015180156200230257506060820151155b15620023175760006080830181905260608301525b81608001516200238f5760006200232e8362002448565b60016080850152905060005b6003811015620023855781816003811062002359576200235962002def565b60200201518460200151826003811062002377576200237762002def565b60200201526001016200233a565b5050600360608301525b60208201515160015b600381101562002403578360600151811015620023fa5783602001518160038110620023c857620023c862002def565b60200201518460200151600183620023e1919062002e1b565b60038110620023f457620023f462002def565b60200201525b60010162002398565b5060018360600181815162002419919062002e1b565b9052506020830151606084015160009190600381106200243d576200243d62002def565b602002015292915050565b6200245262002b02565b60005b60038110156200249557826060015181106200248c5760008360200151826003811062002486576200248662002def565b60200201525b60010162002455565b5060005b60038110156200251157620024ea83602001518260038110620024c057620024c062002def565b602002015184604001518360048110620024de57620024de62002def565b602002015190620025a8565b8360400151826004811062002503576200250362002def565b602002015260010162002499565b50604082015160a0830151805160209091015162002531929190620025d5565b6040808401919091528051606081018252600080825260208201819052918101829052905b6003811015620025a1578360400151816004811062002579576200257962002def565b602002015182826003811062002593576200259362002def565b602002015260010162002556565b5092915050565b60007f30644e72e131a029b85045b68181585d2833e84879b9709143e1f593f00000018284089392505050565b620025df62002b20565b600060405180608001604052806000815260200160008152602001600081526020016000815250905060005b600481101562002652578581600481106200262a576200262a62002def565b602002015182826004811062002644576200264462002def565b60200201526001016200260b565b506200265e8162002770565b60006200266e6002600862002e31565b905060005b81811015620026a8576200268983868362002886565b620026948362002908565b6200269f8362002770565b60010162002673565b506000620026b860388362002e05565b9050815b818110156200271957620026ed868260408110620026de57620026de62002def565b602002015151856000620024de565b8452620027028460005b602002015162002951565b845262002710848862002981565b600101620026bc565b5060006200272a6038600862002e05565b9050815b8181101562002763576200274485888362002886565b6200274f8562002908565b6200275a8562002770565b6001016200272e565b5092979650505050505050565b6000620027878260016020020151836000620024de565b90506000620027a08360036020020151846002620024de565b90506000620027b98460016020020151856001620024de565b9050620027c78183620025a8565b90506000620027e08560036020020151866003620024de565b9050620027ee8185620025a8565b90506000620027fe8480620025a8565b90506200280c8180620025a8565b90506200281a8183620025a8565b905060006200282a8680620025a8565b9050620028388180620025a8565b9050620028468185620025a8565b90506000620028568483620025a8565b90506000620028668685620025a8565b918952506020880191909152604087015260609095019490945250505050565b60005b60048110156200290257620028df838360408110620028ac57620028ac62002def565b60200201518260048110620028c557620028c562002def565b6020020151858360048110620024de57620024de62002def565b848260048110620028f457620028f462002def565b602002015260010162002889565b50505050565b60005b6004811015620022e8576200292e828260048110620026f757620026f762002def565b82826004811062002943576200294362002def565b60200201526001016200290b565b60008062002960838062002a64565b90506200297a8362002973838062002a64565b9062002a64565b9392505050565b6000805b6004811015620029c057620029b5848260048110620029a857620029a862002def565b60200201518390620025a8565b915060010162002985565b5060005b6004811015620029025762002a0d838260048110620029e757620029e762002def565b602002015185836004811062002a015762002a0162002def565b60200201519062002a64565b84826004811062002a225762002a2262002def565b602002015262002a4182858360048110620024de57620024de62002def565b84826004811062002a565762002a5662002def565b6020020152600101620029c4565b60007f30644e72e131a029b85045b68181585d2833e84879b9709143e1f593f00000018284099392505050565b604051806040016040528062002aa662002b20565b815260200162002ab562002b3e565b905290565b6040518060c001604052806000815260200162002ad662002b02565b815260200162002ae562002b20565b8152600060208201819052604082015260600162002ab562002a91565b60405180606001604052806003906020820280368337509192915050565b60405180608001604052806004906020820280368337509192915050565b6040518061080001604052806040905b62002b5862002b20565b81526020019060019003908162002b4e5790505090565b6001600160a01b038116811462002b8557600080fd5b50565b6000806000806080858703121562002b9f57600080fd5b845162002bac8162002b6f565b602086015190945062002bbf8162002b6f565b604086015190935062002bd28162002b6f565b606086015190925062002be58162002b6f565b939692955090935050565b634e487b7160e01b600052601160045260246000fd5b63ffffffff828116828216039080821115620025a157620025a162002bf0565b600181815b8085111562002c69578163ffffffff0482111562002c4d5762002c4d62002bf0565b8085161562002c5b57918102915b93841c939080029062002c2b565b509250929050565b60008262002c825750600162000aed565b8162002c915750600062000aed565b816001811462002caa576002811462002cb55762002ced565b600191505062000aed565b60ff84111562002cc95762002cc962002bf0565b6001841b915063ffffffff82111562002ce65762002ce662002bf0565b5062000aed565b5060208310610133831016604e8410600b841016171562002d29575081810a63ffffffff81111562002d235762002d2362002bf0565b62000aed565b62002d35838362002c26565b8063ffffffff0482111562002d4e5762002d4e62002bf0565b029392505050565b600063ffffffff62000ae981851682851662002c71565b634e487b7160e01b600052601260045260246000fd5b600063ffffffff8084168062002d9d5762002d9d62002d6d565b92169190910692915050565b600063ffffffff8084168062002dc35762002dc362002d6d565b92169190910492915050565b63ffffffff818116838216019080821115620025a157620025a162002bf0565b634e487b7160e01b600052603260045260246000fd5b8082018082111562000aed5762000aed62002bf0565b8181038181111562000aed5762000aed62002bf0565b60008262002e435762002e4362002d6d565b500490565b61478b8062002e586000396000f3fe608060405234801561001057600080fd5b50600436106101ad5760003560e01c806384b405e0116100ee578063ba70f75711610097578063e40af72e11610071578063e40af72e14610428578063e829558814610448578063f178e47c1461045b578063fc7e9c6f1461047b57600080fd5b8063ba70f757146103e3578063c2b40ae414610400578063cd87a3b41461042057600080fd5b806398754e0a116100c857806398754e0a146103aa578063a6232a93146103bd578063aa0b7db7146103d057600080fd5b806384b405e01461037257806390eeb02b1461038557806395d1d7c71461039557600080fd5b8063404c81491161015b5780634ecf518b116101355780634ecf518b146102ff57806356cf5d41146103245780635ed86d5c1461032c578063738133dc1461033f57600080fd5b8063404c81491461029e5780634b8ecb0e146102b15780634c5eb676146102d857600080fd5b806329648a971161018c57806329648a971461022b57806329a2b3cf146102525780633e413bee1461027257600080fd5b8062d604d0146101b257806312024715146101d0578063257671f514610215575b600080fd5b6101ba610493565b6040516101c79190613bd4565b60405180910390f35b6004546101f09073ffffffffffffffffffffffffffffffffffffffff1681565b60405173ffffffffffffffffffffffffffffffffffffffff90911681526020016101c7565b61021d6104eb565b6040519081526020016101c7565b61021d7f262540451c6dd240fa72641be24bca61b14a3e5101df5633ef8d4f9e669eddb281565b6006546101f09073ffffffffffffffffffffffffffffffffffffffff1681565b6003546101f09068010000000000000000900473ffffffffffffffffffffffffffffffffffffffff1681565b61021d6102ac366004613c18565b610518565b61021d7f087486f7f14f265e263a4a6e776d45c15664d2dcb8c72288f4acf7fe1daeedaf81565b61021d7f0ecc1f56d6a29051a511ea4b08361649d190b7f7525a9d4ed36b9041e127207a81565b60005461030f9063ffffffff1681565b60405163ffffffff90911681526020016101c7565b60085461021d565b6101f061033a366004613c18565b610539565b61036261034d366004613c18565b60076020526000908152604090205460ff1681565b60405190151581526020016101c7565b6101ba610380366004613c31565b610574565b60035461030f9063ffffffff1681565b6103a86103a3366004613d23565b61061c565b005b6103a86103b8366004613dce565b6107b6565b6103626103cb366004613c18565b610e42565b6103a86103de366004613e98565b610ecb565b60035463ffffffff1660009081526002602052604090205461021d565b61021d61040e366004613c18565b60026020526000908152604090205481565b61030f601e81565b6005546101f09073ffffffffffffffffffffffffffffffffffffffff1681565b61021d610456366004613c18565b610edb565b61021d610469366004613c18565b60016020526000908152604090205481565b60035461030f90640100000000900463ffffffff1681565b606060088054806020026020016040519081016040528092919081815260200182805480156104e157602002820191906000526020600020905b8154815260200190600101908083116104cd575b5050505050905090565b6040516104fa60208201613af6565b6020820181038252601f19601f820116604052508051906020012081565b6008818154811061052857600080fd5b600091825260209091200154905081565b600061056e8260405161054e60208201613af6565b6020820181038252601f19601f820116604052508051906020012061151a565b92915050565b606060008267ffffffffffffffff81111561059157610591613c53565b6040519080825280602002602001820160405280156105ba578160200160208202803683370190505b50905060005b838110156106145760086105d48287613f17565b815481106105e4576105e4613f2a565b906000526020600020015482828151811061060157610601613f2a565b60209081029190910101526001016105c0565b509392505050565b60055473ffffffffffffffffffffffffffffffffffffffff1663ea50d0e4846106448761152e565b6040518363ffffffff1660e01b8152600401610661929190613f59565b602060405180830381865afa15801561067e573d6000803e3d6000fd5b505050506040513d601f19601f820116820180604052508101906106a29190613ff1565b6106f35760405162461bcd60e51b815260206004820152601560248201527f6861736832207a6b2070726f6f66206661696c6564000000000000000000000060448201526064015b60405180910390fd5b60006106fe85611575565b6040517f02cba74100000000000000000000000000000000000000000000000000000000815273ffffffffffffffffffffffffffffffffffffffff898116600483015230602483015260448201899052919250908216906302cba741906064016020604051808303816000875af115801561077d573d6000803e3d6000fd5b505050506040513d601f19601f820116820180604052508101906107a19190613ff1565b506107ad8684846116dd565b50505050505050565b6107d9816000815181106107cc576107cc613f2a565b6020026020010151610e42565b6108255760405162461bcd60e51b815260206004820152601560248201527f4465706f7369747320726f6f7420756e6b6e6f776e000000000000000000000060448201526064016106ea565b60008061084b8360018151811061083e5761083e613f2a565b602002602001015161184d565b9150915061089c7f262540451c6dd240fa72641be24bca61b14a3e5101df5633ef8d4f9e669eddb28460038151811061088657610886613f2a565b60200260200101516118ba90919063ffffffff16565b6109bc5760076000846003815181106108b7576108b7613f2a565b60209081029190910181015182528101919091526040016000205460ff16156109225760405162461bcd60e51b815260206004820152600d60248201527f4e6f7465206973207370656e740000000000000000000000000000000000000060448201526064016106ea565b6001600760008560038151811061093b5761093b613f2a565b6020026020010151815260200190815260200160002060006101000a81548160ff0219169083151502179055507fb7517d93585257c6e03d2d3d0126dfb8f9290e9bd3e8d2582f2977bd85c5dbe98360038151811061099c5761099c613f2a565b60200260200101516040516109b391815260200190565b60405180910390a15b6109f37f262540451c6dd240fa72641be24bca61b14a3e5101df5633ef8d4f9e669eddb28460048151811061088657610886613f2a565b610b13576007600084600481518110610a0e57610a0e613f2a565b60209081029190910181015182528101919091526040016000205460ff1615610a795760405162461bcd60e51b815260206004820152600d60248201527f4e6f7465206973207370656e740000000000000000000000000000000000000060448201526064016106ea565b60016007600085600481518110610a9257610a92613f2a565b6020026020010151815260200190815260200160002060006101000a81548160ff0219169083151502179055507fb7517d93585257c6e03d2d3d0126dfb8f9290e9bd3e8d2582f2977bd85c5dbe983600481518110610af357610af3613f2a565b6020026020010151604051610b0a91815260200190565b60405180910390a15b60045473ffffffffffffffffffffffffffffffffffffffff1663ea50d0e485856040518363ffffffff1660e01b8152600401610b50929190613f59565b602060405180830381865afa158015610b6d573d6000803e3d6000fd5b505050506040513d601f19601f82011682018060405250810190610b919190613ff1565b610bdd5760405162461bcd60e51b815260206004820152601a60248201527f73706c6974206a6f696e207a6b2070726f6f66206661696c656400000000000060448201526064016106ea565b7ff234da3258dbf8e5a4e39e1acffc5d2bedbd437738faf277c46c20c6556a0b2e83600481518110610c1157610c11613f2a565b6020026020010151604051610c2891815260200190565b60405180910390a1600883600481518110610c4557610c45613f2a565b602090810291909101810151825460018101845560009384529190922001558251610c8a9084906004908110610c7d57610c7d613f2a565b60200260200101516118be565b508115610d43576003546040517f23b872dd000000000000000000000000000000000000000000000000000000008152336004820152306024820152604481018390526801000000000000000090910473ffffffffffffffffffffffffffffffffffffffff16906323b872dd906064016020604051808303816000875af1158015610d19573d6000803e3d6000fd5b505050506040513d601f19601f82011682018060405250810190610d3d9190613ff1565b50610e3c565b600360089054906101000a900473ffffffffffffffffffffffffffffffffffffffff1673ffffffffffffffffffffffffffffffffffffffff1663a9059cbb610da485600281518110610d9757610d97613f2a565b6020026020010151611ac5565b6040517fffffffff0000000000000000000000000000000000000000000000000000000060e084901b16815273ffffffffffffffffffffffffffffffffffffffff9091166004820152602481018490526044016020604051808303816000875af1158015610e16573d6000803e3d6000fd5b505050506040513d601f19601f82011682018060405250810190610e3a9190613ff1565b505b50505050565b600081610e5157506000919050565b60035463ffffffff16805b63ffffffff808216600090815260026020526040902054610e80918691906118ba16565b15610e8f575060019392505050565b8063ffffffff16600003610ea15750601e5b80610eab81614013565b9150508163ffffffff168163ffffffff1603610e5c575060009392505050565b610ed68383836116dd565b505050565b600081600003610eed57506000919050565b81600103610f1c57507f0b63a53787021a4a962a452c2921b3663aff1ffd8d5510540f8e659e782956f1919050565b81600203610f4b57507f0e34ac2c09f45a503d2908bcb12f1cbae5fa4065759c88d501c097506a8b2290919050565b81600303610f7a57507f21f9172d72fdcdafc312eee05cf5092980dda821da5b760a9fb8dbdf607c8a20919050565b81600403610fa957507f2373ea368857ec7af97e7b470d705848e2bf93ed7bef142a490f2119bcf82d8e919050565b81600503610fd857507f120157cfaaa49ce3da30f8b47879114977c24b266d58b0ac18b325d878aafddf919050565b8160060361100757507f01c28fe1059ae0237b72334700697bdf465e03df03986fe05200cadeda66bd76919050565b8160070361103657507f2d78ed82f93b61ba718b17c2dfe5b52375b4d37cbbed6f1fc98b47614b0cf21b919050565b8160080361106557507f067243231eddf4222f3911defbba7705aff06ed45960b27f6f91319196ef97e1919050565b8160090361109457507f1849b85f3c693693e732dfc4577217acc18295193bede09ce8b97ad910310972919050565b81600a036110c357507f2a775ea761d20435b31fa2c33ff07663e24542ffb9e7b293dfce3042eb104686919050565b81600b036110f257507f0f320b0703439a8114f81593de99cd0b8f3b9bf854601abb5b2ea0e8a3dda4a7919050565b81600c0361112157507f0d07f6e7a8a0e9199d6d92801fff867002ff5b4808962f9da2ba5ce1bdd26a73919050565b81600d0361115057507f1c4954081e324939350febc2b918a293ebcdaead01be95ec02fcbe8d2c1635d1919050565b81600e0361117f57507f0197f2171ef99c2d053ee1fb5ff5ab288d56b9b41b4716c9214a4d97facc4c4a919050565b81600f036111ae57507f2b9cdd484c5ba1e4d6efcc3f18734b5ac4c4a0b9102e2aeb48521a661d3feee9919050565b816010036111dd57507f14f44d672eb357739e42463497f9fdac46623af863eea4d947ca00a497dcdeb3919050565b8160110361120c57507f071d7627ae3b2eabda8a810227bf04206370ac78dbf6c372380182dbd3711fe3919050565b8160120361123b57507f2fdc08d9fe075ac58cb8c00f98697861a13b3ab6f9d41a4e768f75e477475bf5919050565b8160130361126a57507f20165fe405652104dceaeeca92950aa5adc571b8cafe192878cba58ff1be49c5919050565b8160140361129957507f1c8c3ca0b3a3d75850fcd4dc7bf1e3445cd0cfff3ca510630fd90b47e8a24755919050565b816015036112c857507f1f0c1a8fb16b0d2ac9a146d7ae20d8d179695a92a79ed66fc45d9da4532459b3919050565b816016036112f757507f038146ec5a2573e1c30d2fb32c66c8440f426fbd108082df41c7bebd1d521c30919050565b8160170361132657507f17d3d12b17fe762de4b835b2180b012e808816a7f2ff69ecb9d65188235d8fd4919050565b8160180361135557507f0e1a6b7d63a6e5a9e54e8f391dd4e9d49cdfedcbc87f02cd34d4641d2eb30491919050565b8160190361138457507f09244eec34977ff795fc41036996ce974136377f521ac8eb9e04642d204783d2919050565b81601a036113b357507f1646d6f544ec36df9dc41f778a7ef1690a53c730b501471b6acd202194a7e8e9919050565b81601b036113e257507f064769603ba3f6c41f664d266ecb9a3a0f6567cd3e48b40f34d4894ee4c361b3919050565b81601c0361141157507f1595bb3cd19f84619dc2e368175a88d8627a7439eda9397202cdb1167531fd3f919050565b81601d0361144057507f2a529be462b81ca30265b558763b1498289c9d88277ab14f0838cb1fce4b472c919050565b81601e0361146f57507f0c08da612363088ad0bbc78abd233e8ace4c05a56fdabdd5e5e9b05e428bdaee919050565b81601f0361149e57507f14748d0241710ef47f54b931ac5a58082b1d56b0f0c30d55fb71a6e8c9a6be14919050565b816020036114cd57507f0b59baa35b9dc267744f0ccb4e3b0255c1fc512460d91130c6bc19fb2668568d919050565b60405162461bcd60e51b815260206004820152601360248201527f496e646578206f7574206f6620626f756e64730000000000000000000000000060448201526064016106ea565b919050565b6000611527838330611b2f565b9392505050565b60408051600180825281830190925260609160208083019080368337019050509050818160008151811061156457611564613f2a565b602002602001018181525050919050565b60008061158c836040518060200161054e90613af6565b9050803b60008190036116d6576000604051806020016115ab90613af6565b6020820181038252601f19601f8201166040525090506000858251602084016000f5905073ffffffffffffffffffffffffffffffffffffffff81166116585760405162461bcd60e51b815260206004820152602660248201527f57616c6c6574466163746f72793a206661696c656420746f206465706c6f792060448201527f77616c6c6574000000000000000000000000000000000000000000000000000060648201526084016106ea565b8373ffffffffffffffffffffffffffffffffffffffff168173ffffffffffffffffffffffffffffffffffffffff16146116d35760405162461bcd60e51b815260206004820152601e60248201527f57616c6c6574466163746f72793a206465706c6f79206d69736d61746368000060448201526064016106ea565b50505b5092915050565b60408051600280825260608201835260009260208301908036833701905050905061170784611b59565b8160008151811061171a5761171a613f2a565b602002602001018181525050828160018151811061173a5761173a613f2a565b602090810291909101015260065473ffffffffffffffffffffffffffffffffffffffff1663ea50d0e483836040518363ffffffff1660e01b8152600401611782929190613f59565b602060405180830381865afa15801561179f573d6000803e3d6000fd5b505050506040513d601f19601f820116820180604052508101906117c39190613ff1565b61180f5760405162461bcd60e51b815260206004820152601460248201527f6e6f7465207a6b2070726f6f66206661696c656400000000000000000000000060448201526064016106ea565b600880546001810182556000919091527ff3f7a9fe364faab93b216da50a3214154f22a0a2b415b23a84c8169e8b636ee301839055610e3a836118be565b600080827f183227397098d014dc2822db40c0ac2e9419f4243cdcb848a1f0fac9f80000008111156118af5760006118a5827f30644e72e131a029b85045b68181585d2833e84879b9709143e1f593f0000001614051565b9250925050915091565b600194909350915050565b1490565b60035460008054909163ffffffff6401000000009091048116916118e491166002614175565b63ffffffff168163ffffffff16036119645760405162461bcd60e51b815260206004820152603060248201527f4d65726b6c6520747265652069732066756c6c2e204e6f206d6f7265206c656160448201527f7665732063616e2062652061646465640000000000000000000000000000000060648201526084016106ea565b8083600080805b60005463ffffffff9081169082161015611a055761198a6002866141b9565b63ffffffff166000036119c8578392506119a98163ffffffff16610edb565b63ffffffff8216600090815260016020526040902085905591506119e4565b63ffffffff811660009081526001602052604090205492508391505b6119ee8383611b63565b93506119fb6002866141dc565b945060010161196b565b50600354600090601e90611a209063ffffffff1660016141ff565b611a2a91906141b9565b600380547fffffffffffffffffffffffffffffffffffffffffffffffffffffffff000000001663ffffffff831690811790915560009081526002602052604090208590559050611a7b8660016141ff565b6003805463ffffffff92909216640100000000027fffffffffffffffffffffffffffffffffffffffffffffffff00000000ffffffff90921691909117905550939695505050505050565b6000740100000000000000000000000000000000000000008210611b2b5760405162461bcd60e51b815260206004820152601960248201527f4669656c643a20696e70757420697320746f6f206c617267650000000000000060448201526064016106ea565b5090565b6000604051836040820152846020820152828152600b8101905060ff815360559020949350505050565b8061151581611be5565b604080516002808252606082018352600092839291906020830190803683370190505090508381600081518110611b9c57611b9c613f2a565b6020026020010181815250508281600181518110611bbc57611bbc613f2a565b602002602001018181525050611bdd611bd3611c57565b8260026000613247565b949350505050565b7f30644e72e131a029b85045b68181585d2833e84879b9709143e1f593f00000018110611c545760405162461bcd60e51b815260206004820152601960248201527f4669656c643a20696e70757420697320746f6f206c617267650000000000000060448201526064016106ea565b50565b611c5f613b03565b604051806040016040528060405180608001604052807f10dc6e9c006ea38b04b1e03b4bd9490c0d03f98929ca1d7fb56821fd19d3b6e781526020017f0c28145b6a44df3e0149b3d0a30b3bb599df9756d4dd9b84a86b38cfb45a740b81526020017e544b8338791518b2c7645a50392798b21f75bb60e3596170067d00141cac1581526020017f222c01175718386f2e2e82eb122789e352e105a3b8fa852613bc534433ee428b815250815260200160405180610800016040528060405180608001604052807f19b849f69450b06848da1d39bd5e4a4302bb86744edc26238b0878e269ed23e581526020017f265ddfe127dd51bd7239347b758f0a1320eb2cc7450acc1dad47f80c8dcf34d681526020017f199750ec472f1809e0f66a545e1e51624108ac845015c2aa3dfc36bab497d8aa81526020017f157ff3fe65ac7208110f06a5f74302b14d743ea25067f0ffd032f787c7f1cdf8815250815260200160405180608001604052807f2e49c43c4569dd9c5fd35ac45fca33f10b15c590692f8beefe18f4896ac9490281526020017f0e35fb89981890520d4aef2b6d6506c3cb2f0b6973c24fa82731345ffa2d1f1e81526020017f251ad47cb15c4f1105f109ae5e944f1ba9d9e7806d667ffec6fe723002e0b99681526020017f13da07dc64d428369873e97160234641f8beb56fdd05e5f3563fa39d9c22df4e815250815260200160405180608001604052807f0c009b84e650e6d23dc00c7dccef7483a553939689d350cd46e7b89055fd473881526020017f011f16b1c63a854f01992e3956f42d8b04eb650c6d535eb0203dec74befdca0681526020017f0ed69e5e383a688f209d9a561daa79612f3f78d0467ad45485df07093f36754981526020017f04dba94a7b0ce9e221acad41472b6bbe3aec507f5eb3d33f463672264c9f789b815250815260200160405180608001604052807f0a3f2637d840f3a16eb094271c9d237b6036757d4bb50bf7ce732ff1d4fa28e881526020017f259a666f129eea198f8a1c502fdb38fa39b1f075569564b6e54a485d1182323f81526020017f28bf7459c9b2f4c6d8e7d06a4ee3a47f7745d4271038e5157a32fdf7ede0d6a181526020017f0a1ca941f057037526ea200f489be8d4c37c85bbcce6a2aeec91bd6941432447815250815260200160405180608001604052807f0c6f8f958be0e93053d7fd4fc54512855535ed1539f051dcb43a26fd926361cf815260200160008152602001600081526020016000815250815260200160405180608001604052807f123106a93cd17578d426e8128ac9d90aa9e8a00708e296e084dd57e69caaf811815260200160008152602001600081526020016000815250815260200160405180608001604052807f26e1ba52ad9285d97dd3ab52f8e840085e8fa83ff1e8f1877b074867cd2dee75815260200160008152602001600081526020016000815250815260200160405180608001604052807f1cb55cad7bd133de18a64c5c47b9c97cbe4d8b7bf9e095864471537e6a4ae2c5815260200160008152602001600081526020016000815250815260200160405180608001604052807f1dcd73e46acd8f8e0e2c7ce04bde7f6d2a53043d5060a41c7143f08e6e9055d0815260200160008152602001600081526020016000815250815260200160405180608001604052807f011003e32f6d9c66f5852f05474a4def0cda294a0eb4e9b9b12b9bb4512e5574815260200160008152602001600081526020016000815250815260200160405180608001604052807f2b1e809ac1d10ab29ad5f20d03a57dfebadfe5903f58bafed7c508dd2287ae8c815260200160008152602001600081526020016000815250815260200160405180608001604052807f2539de1785b735999fb4dac35ee17ed0ef995d05ab2fc5faeaa69ae87bcec0a5815260200160008152602001600081526020016000815250815260200160405180608001604052807f0c246c5a2ef8ee0126497f222b3e0a0ef4e1c3d41c86d46e43982cb11d77951d815260200160008152602001600081526020016000815250815260200160405180608001604052807f192089c4974f68e95408148f7c0632edbb09e6a6ad1a1c2f3f0305f5d03b527b815260200160008152602001600081526020016000815250815260200160405180608001604052807f1eae0ad8ab68b2f06a0ee36eeb0d0c058529097d91096b756d8fdc2fb5a60d85815260200160008152602001600081526020016000815250815260200160405180608001604052807f179190e5d0e22179e46f8282872abc88db6e2fdc0dee99e69768bd98c5d06bfb815260200160008152602001600081526020016000815250815260200160405180608001604052807f29bb9e2c9076732576e9a81c7ac4b83214528f7db00f31bf6cafe794a9b3cd1c815260200160008152602001600081526020016000815250815260200160405180608001604052807f225d394e42207599403efd0c2464a90d52652645882aac35b10e590e6e691e08815260200160008152602001600081526020016000815250815260200160405180608001604052807f064760623c25c8cf753d238055b444532be13557451c087de09efd454b23fd59815260200160008152602001600081526020016000815250815260200160405180608001604052807f10ba3a0e01df92e87f301c4b716d8a394d67f4bf42a75c10922910a78f6b5b87815260200160008152602001600081526020016000815250815260200160405180608001604052807f0e070bf53f8451b24f9c6e96b0c2a801cb511bc0c242eb9d361b77693f21471c815260200160008152602001600081526020016000815250815260200160405180608001604052807f1b94cd61b051b04dd39755ff93821a73ccd6cb11d2491d8aa7f921014de252fb815260200160008152602001600081526020016000815250815260200160405180608001604052807f1d7cb39bafb8c744e148787a2e70230f9d4e917d5713bb050487b5aa7d74070b815260200160008152602001600081526020016000815250815260200160405180608001604052807f2ec93189bd1ab4f69117d0fe980c80ff8785c2961829f701bb74ac1f303b17db815260200160008152602001600081526020016000815250815260200160405180608001604052807f2db366bfdd36d277a692bb825b86275beac404a19ae07a9082ea46bd83517926815260200160008152602001600081526020016000815250815260200160405180608001604052807f062100eb485db06269655cf186a68532985275428450359adc99cec6960711b8815260200160008152602001600081526020016000815250815260200160405180608001604052807f0761d33c66614aaa570e7f1e8244ca1120243f92fa59e4f900c567bf41f5a59b815260200160008152602001600081526020016000815250815260200160405180608001604052807f20fc411a114d13992c2705aa034e3f315d78608a0f7de4ccf7a72e494855ad0d815260200160008152602001600081526020016000815250815260200160405180608001604052807f25b5c004a4bdfcb5add9ec4e9ab219ba102c67e8b3effb5fc3a30f317250bc5a815260200160008152602001600081526020016000815250815260200160405180608001604052807f23b1822d278ed632a494e58f6df6f5ed038b186d8474155ad87e7dff62b37f4b815260200160008152602001600081526020016000815250815260200160405180608001604052807f22734b4c5c3f9493606c4ba9012499bf0f14d13bfcfcccaa16102a29cc2f69e0815260200160008152602001600081526020016000815250815260200160405180608001604052807f26c0c8fe09eb30b7e27a74dc33492347e5bdff409aa3610254413d3fad795ce5815260200160008152602001600081526020016000815250815260200160405180608001604052807f070dd0ccb6bd7bbae88eac03fa1fbb26196be3083a809829bbd626df348ccad9815260200160008152602001600081526020016000815250815260200160405180608001604052807f12b6595bdb329b6fb043ba78bb28c3bec2c0a6de46d8c5ad6067c4ebfd4250da815260200160008152602001600081526020016000815250815260200160405180608001604052807f248d97d7f76283d63bec30e7a5876c11c06fca9b275c671c5e33d95bb7e8d729815260200160008152602001600081526020016000815250815260200160405180608001604052807f1a306d439d463b0816fc6fd64cc939318b45eb759ddde4aa106d15d9bd9baaaa815260200160008152602001600081526020016000815250815260200160405180608001604052807f28a8f8372e3c38daced7c00421cb4621f4f1b54ddc27821b0d62d3d6ec7c56cf815260200160008152602001600081526020016000815250815260200160405180608001604052807e94975717f9a8a8bb35152f24d43294071ce320c829f388bc852183e1e2ce7e815260200160008152602001600081526020016000815250815260200160405180608001604052807f04d5ee4c3aa78f7d80fde60d716480d3593f74d4f653ae83f4103246db2e8d65815260200160008152602001600081526020016000815250815260200160405180608001604052807f2a6cf5e9aa03d4336349ad6fb8ed2269c7bef54b8822cc76d08495c12efde187815260200160008152602001600081526020016000815250815260200160405180608001604052807f2304d31eaab960ba9274da43e19ddeb7f792180808fd6e43baae48d7efcba3f3815260200160008152602001600081526020016000815250815260200160405180608001604052807f03fd9ac865a4b2a6d5e7009785817249bff08a7e0726fcb4e1c11d39d199f0b0815260200160008152602001600081526020016000815250815260200160405180608001604052807eb7258ded52bbda2248404d55ee5044798afc3a209193073f7954d4d63b0b64815260200160008152602001600081526020016000815250815260200160405180608001604052807f159f81ada0771799ec38fca2d4bf65ebb13d3a74f3298db36272c5ca65e92d9a815260200160008152602001600081526020016000815250815260200160405180608001604052807f1ef90e67437fbc8550237a75bc28e3bb9000130ea25f0c5471e144cf4264431f815260200160008152602001600081526020016000815250815260200160405180608001604052807f1e65f838515e5ff0196b49aa41a2d2568df739bc176b08ec95a79ed82932e30d815260200160008152602001600081526020016000815250815260200160405180608001604052807f2b1b045def3a166cec6ce768d079ba74b18c844e570e1f826575c1068c94c33f815260200160008152602001600081526020016000815250815260200160405180608001604052807f0832e5753ceb0ff6402543b1109229c165dc2d73bef715e3f1c6e07c168bb173815260200160008152602001600081526020016000815250815260200160405180608001604052807f02f614e9cedfb3dc6b762ae0a37d41bab1b841c2e8b6451bc5a8e3c390b6ad16815260200160008152602001600081526020016000815250815260200160405180608001604052807f0e2427d38bd46a60dd640b8e362cad967370ebb777bedff40f6a0be27e7ed705815260200160008152602001600081526020016000815250815260200160405180608001604052807f0493630b7c670b6deb7c84d414e7ce79049f0ec098c3c7c50768bbe29214a53a815260200160008152602001600081526020016000815250815260200160405180608001604052807f22ead100e8e482674decdab17066c5a26bb1515355d5461a3dc06cc85327cea9815260200160008152602001600081526020016000815250815260200160405180608001604052807f25b3e56e655b42cdaae2626ed2554d48583f1ae35626d04de5084e0b6d2a6f16815260200160008152602001600081526020016000815250815260200160405180608001604052807f1e32752ada8836ef5837a6cde8ff13dbb599c336349e4c584b4fdc0a0cf6f9d0815260200160008152602001600081526020016000815250815260200160405180608001604052807f2fa2a871c15a387cc50f68f6f3c3455b23c00995f05078f672a9864074d412e5815260200160008152602001600081526020016000815250815260200160405180608001604052807f2f569b8a9a4424c9278e1db7311e889f54ccbf10661bab7fcd18e7c7a7d83505815260200160008152602001600081526020016000815250815260200160405180608001604052807f044cb455110a8fdd531ade530234c518a7df93f7332ffd2144165374b246b43d815260200160008152602001600081526020016000815250815260200160405180608001604052807f227808de93906d5d420246157f2e42b191fe8c90adfe118178ddc723a5319025815260200160008152602001600081526020016000815250815260200160405180608001604052807f02fcca2934e046bc623adead873579865d03781ae090ad4a8579d2e7a6800355815260200160008152602001600081526020016000815250815260200160405180608001604052807f0ef915f0ac120b876abccceb344a1d36bad3f3c5ab91a8ddcbec2e060d8befac815260200160008152602001600081526020016000815250815260200160405180608001604052807f1797130f4b7a3e1777eb757bc6f287f6ab0fb85f6be63b09f3b16ef2b1405d3881526020017f0a76225dc04170ae3306c85abab59e608c7f497c20156d4d36c668555decc6e581526020017f1fffb9ec1992d66ba1e77a7b93209af6f8fa76d48acb664796174b5326a31a5c81526020017f25721c4fc15a3f2853b57c338fa538d85f8fbba6c6b9c6090611889b797b9c5f815250815260200160405180608001604052807f0c817fd42d5f7a41215e3d07ba197216adb4c3790705da95eb63b982bfcaf75a81526020017f13abe3f5239915d39f7e13c2c24970b6df8cf86ce00a22002bc15866e52b5a9681526020017f2106feea546224ea12ef7f39987a46c85c1bc3dc29bdbd7a92cd60acb4d391ce81526020017f21ca859468a746b6aaa79474a37dab49f1ca5a28c748bc7157e1b3345bb0f959815250815260200160405180608001604052807f05ccd6255c1e6f0c5cf1f0df934194c62911d14d0321662a8f1a48999e34185b81526020017f0f0e34a64b70a626e464d846674c4c8816c4fb267fe44fe6ea28678cb09490a481526020017f0558531a4e25470c6157794ca36d0e9647dbfcfe350d64838f5b1a8a2de0d4bf81526020017f09d3dca9173ed2faceea125157683d18924cadad3f655a60b72f5864961f1455815250815260200160405180608001604052807f0328cbd54e8c0913493f866ed03d218bf23f92d68aaec48617d4c722e5bd433581526020017f2bf07216e2aff0a223a487b1a7094e07e79e7bcc9798c648ee3347dd5329d34b81526020017f1daf345a58006b736499c583cb76c316d6f78ed6a6dffc82111e11a63fe412df81526020017f176563472456aaa746b694c60e1823611ef39039b2edc7ff391e6f2293d2c404815250815250815250905090565b60008061325e613258865160401b90565b876132cd565b905060005b85518110156132a857848110156132a0576132a086828151811061328957613289613f2a565b60200260200101518361336f90919063ffffffff16565b600101613263565b5082156132ba576132ba81600161336f565b6132c381613421565b9695505050505050565b6132d5613b28565b60006040518060c0016040528085815260200160405180606001604052806000815260200160008152602001600081525081526020016040518060800160405280600081526020016000815260200160008152602001600081525081526020016000815260200160001515815260200184815250905083816040015160036004811061336357613363613f2a565b60200201529392505050565b8160800151158015613385575060038260600151145b156133a45761339382613560565b506020820151526001606090910152565b81608001511580156133bb57506003826060015114155b156133fc578082602001518360600151600381106133db576133db613f2a565b6020020152606082018051600191906133f5908390613f17565b9052505050565b81608001511561341d57602082015181905260016060830152600060808301525b5050565b60008160800151801561343657506060820151155b1561344a5760006080830181905260608301525b81608001516134b757600061345e83613560565b60016080850152905060005b60038110156134ad5781816003811061348557613485613f2a565b6020020151846020015182600381106134a0576134a0613f2a565b602002015260010161346a565b5050600360608301525b60208201515160015b600381101561352057836060015181101561351857836020015181600381106134eb576134eb613f2a565b602002015184602001516001836135029190614051565b6003811061351257613512613f2a565b60200201525b6001016134c0565b506001836060018181516135349190614051565b90525060208301516060840151600091906003811061355557613555613f2a565b602002015292915050565b613568613b6a565b60005b60038110156135a5578260600151811061359d5760008360200151826003811061359757613597613f2a565b60200201525b60010161356b565b5060005b6003811015613614576135f1836020015182600381106135cb576135cb613f2a565b6020020151846040015183600481106135e6576135e6613f2a565b60200201519061369c565b8360400151826004811061360757613607613f2a565b60200201526001016135a9565b5061363482604001518360a00151600001518460a00151602001516136c9565b6040808401919091528051606081018252600080825260208201819052918101829052905b60038110156116d6578360400151816004811061367857613678613f2a565b602002015182826003811061368f5761368f613f2a565b6020020152600101613659565b60007f30644e72e131a029b85045b68181585d2833e84879b9709143e1f593f00000018284089392505050565b6136d1613b88565b600060405180608001604052806000815260200160008152602001600081526020016000815250905060005b600481101561373c5785816004811061371857613718613f2a565b602002015182826004811061372f5761372f613f2a565b60200201526001016136fd565b5061374681613837565b60006137546002600861421c565b905060005b818110156137865761376c838683613931565b6137758361399e565b61377e83613837565b600101613759565b506000613794603883613f17565b9050815b818110156137ea576137c38682604081106137b5576137b5613f2a565b6020020151518560006135e6565b84526137d68460005b60200201516139de565b84526137e28488613a01565b600101613798565b5060006137f960386008613f17565b9050815b8181101561382a57613810858883613931565b6138198561399e565b61382285613837565b6001016137fd565b5092979650505050505050565b600061384c82600160200201518360006135e6565b9050600061386383600360200201518460026135e6565b9050600061387a84600160200201518560016135e6565b9050613886818361369c565b9050600061389d85600360200201518660036135e6565b90506138a9818561369c565b905060006138b7848061369c565b90506138c3818061369c565b90506138cf818361369c565b905060006138dd868061369c565b90506138e9818061369c565b90506138f5818561369c565b90506000613903848361369c565b90506000613911868561369c565b918952506020880191909152604087015260609095019490945250505050565b60005b6004811015610e3c5761397f83836040811061395257613952613f2a565b6020020151826004811061396857613968613f2a565b60200201518583600481106135e6576135e6613f2a565b84826004811061399157613991613f2a565b6020020152600101613934565b60005b600481101561341d576139bf8282600481106137cc576137cc613f2a565b8282600481106139d1576139d1613f2a565b60200201526001016139a1565b6000806139eb8380613ac9565b9050611527836139fb8380613ac9565b90613ac9565b6000805b6004811015613a3957613a2f848260048110613a2357613a23613f2a565b6020020151839061369c565b9150600101613a05565b5060005b6004811015610e3c57613a7d838260048110613a5b57613a5b613f2a565b6020020151858360048110613a7257613a72613f2a565b602002015190613ac9565b848260048110613a8f57613a8f613f2a565b6020020152613aaa828583600481106135e6576135e6613f2a565b848260048110613abc57613abc613f2a565b6020020152600101613a3d565b60007f30644e72e131a029b85045b68181585d2833e84879b9709143e1f593f00000018284099392505050565b6105258061423183390190565b6040518060400160405280613b16613b88565b8152602001613b23613ba6565b905290565b6040518060c0016040528060008152602001613b42613b6a565b8152602001613b4f613b88565b81526000602082018190526040820152606001613b23613b03565b60405180606001604052806003906020820280368337509192915050565b60405180608001604052806004906020820280368337509192915050565b6040518061080001604052806040905b613bbe613b88565b815260200190600190039081613bb65790505090565b6020808252825182820181905260009190848201906040850190845b81811015613c0c57835183529284019291840191600101613bf0565b50909695505050505050565b600060208284031215613c2a57600080fd5b5035919050565b60008060408385031215613c4457600080fd5b50508035926020909101359150565b7f4e487b7100000000000000000000000000000000000000000000000000000000600052604160045260246000fd5b604051601f8201601f1916810167ffffffffffffffff81118282101715613cab57613cab613c53565b604052919050565b600082601f830112613cc457600080fd5b813567ffffffffffffffff811115613cde57613cde613c53565b613cf16020601f19601f84011601613c82565b818152846020838601011115613d0657600080fd5b816020850160208301376000918101602001919091529392505050565b60008060008060008060c08789031215613d3c57600080fd5b863573ffffffffffffffffffffffffffffffffffffffff81168114613d6057600080fd5b95506020870135945060408701359350606087013567ffffffffffffffff80821115613d8b57600080fd5b613d978a838b01613cb3565b94506080890135935060a0890135915080821115613db457600080fd5b50613dc189828a01613cb3565b9150509295509295509295565b60008060408385031215613de157600080fd5b823567ffffffffffffffff80821115613df957600080fd5b613e0586838701613cb3565b9350602091508185013581811115613e1c57600080fd5b8501601f81018713613e2d57600080fd5b803582811115613e3f57613e3f613c53565b8060051b9250613e50848401613c82565b8181529282018401928481019089851115613e6a57600080fd5b928501925b84841015613e8857833582529285019290850190613e6f565b8096505050505050509250929050565b600080600060608486031215613ead57600080fd5b8335925060208401359150604084013567ffffffffffffffff811115613ed257600080fd5b613ede86828701613cb3565b9150509250925092565b7f4e487b7100000000000000000000000000000000000000000000000000000000600052601160045260246000fd5b8082018082111561056e5761056e613ee8565b7f4e487b7100000000000000000000000000000000000000000000000000000000600052603260045260246000fd5b604081526000835180604084015260005b81811015613f875760208187018101516060868401015201613f6a565b50600060608285010152601f19601f820116830190506060810160206060858403016020860152818651808452608085019150602088019450600093505b80841015613fe55784518252938201936001939093019290820190613fc5565b50979650505050505050565b60006020828403121561400357600080fd5b8151801515811461152757600080fd5b600063ffffffff82168061402957614029613ee8565b7fffffffffffffffffffffffffffffffffffffffffffffffffffffffffffffffff0192915050565b8181038181111561056e5761056e613ee8565b600181815b808511156140a1578163ffffffff0482111561408757614087613ee8565b8085161561409457918102915b93841c9390800290614069565b509250929050565b6000826140b85750600161056e565b816140c55750600061056e565b81600181146140db57600281146140e557614116565b600191505061056e565b60ff8411156140f6576140f6613ee8565b6001841b915063ffffffff82111561411057614110613ee8565b5061056e565b5060208310610133831016604e8410600b841016171561414d575081810a63ffffffff81111561414857614148613ee8565b61056e565b6141578383614064565b8063ffffffff0482111561416d5761416d613ee8565b029392505050565b600063ffffffff611bdd8185168285166140a9565b7f4e487b7100000000000000000000000000000000000000000000000000000000600052601260045260246000fd5b600063ffffffff808416806141d0576141d061418a565b92169190910692915050565b600063ffffffff808416806141f3576141f361418a565b92169190910492915050565b63ffffffff8181168382160190808211156116d6576116d6613ee8565b60008261422b5761422b61418a565b50049056fe608060405234801561001057600080fd5b50600080546001600160a01b031916331790556104f3806100326000396000f3fe6080604052600436106100385760003560e01c806302cba7411461004457806316f0115b146100795780636dbf2fa0146100cb57600080fd5b3661003f57005b600080fd5b34801561005057600080fd5b5061006461005f366004610343565b6100f9565b60405190151581526020015b60405180910390f35b34801561008557600080fd5b506000546100a69073ffffffffffffffffffffffffffffffffffffffff1681565b60405173ffffffffffffffffffffffffffffffffffffffff9091168152602001610070565b3480156100d757600080fd5b506100eb6100e6366004610384565b610221565b60405161007092919061040d565b6000805473ffffffffffffffffffffffffffffffffffffffff163314610180576040517f08c379a000000000000000000000000000000000000000000000000000000000815260206004820152600c60248201527f6f6e6c7920666163746f7279000000000000000000000000000000000000000060448201526064015b60405180910390fd5b6040517fa9059cbb00000000000000000000000000000000000000000000000000000000815273ffffffffffffffffffffffffffffffffffffffff84811660048301526024820184905285169063a9059cbb906044016020604051808303816000875af11580156101f5573d6000803e3d6000fd5b505050506040513d601f19601f820116820180604052508101906102199190610484565b949350505050565b6000805460609073ffffffffffffffffffffffffffffffffffffffff1633146102a6576040517f08c379a000000000000000000000000000000000000000000000000000000000815260206004820152600c60248201527f6f6e6c7920666163746f727900000000000000000000000000000000000000006044820152606401610177565b8573ffffffffffffffffffffffffffffffffffffffff168585856040516102ce9291906104ad565b60006040518083038185875af1925050503d806000811461030b576040519150601f19603f3d011682016040523d82523d6000602084013e610310565b606091505b509097909650945050505050565b73ffffffffffffffffffffffffffffffffffffffff8116811461034057600080fd5b50565b60008060006060848603121561035857600080fd5b83356103638161031e565b925060208401356103738161031e565b929592945050506040919091013590565b6000806000806060858703121561039a57600080fd5b84356103a58161031e565b935060208501359250604085013567ffffffffffffffff808211156103c957600080fd5b818701915087601f8301126103dd57600080fd5b8135818111156103ec57600080fd5b8860208285010111156103fe57600080fd5b95989497505060200194505050565b82151581526000602060406020840152835180604085015260005b8181101561044457858101830151858201606001528201610428565b5060006060828601015260607fffffffffffffffffffffffffffffffffffffffffffffffffffffffffffffffe0601f830116850101925050509392505050565b60006020828403121561049657600080fd5b815180151581146104a657600080fd5b9392505050565b818382376000910190815291905056fea264697066735822122077d983d5508d9e74f5dae069d8f0aecc88f28aca3bd682f0f947621364292a9b64736f6c63430008180033a26469706673582212206ca83560967c038c700b012914128bf2d7c80da218e6b4fc6c50eb7cbae05ee764736f6c63430008180033",
  "devdoc": {
    "kind": "dev",
    "methods": {
      "getLastRoot()": {
        "details": "Returns the last root"
      },
      "isKnownRoot(uint256)": {
        "details": "Whether the root is present in the root history"
      },
      "zeros(uint256)": {
        "details": "provides Zero (Empty) elements for a MiMC MerkleTree. Up to 32 levels"
      }
    },
    "version": 1
  },
  "userdoc": {
    "kind": "user",
    "methods": {},
    "version": 1
  },
  "storageLayout": {
    "storage": [
      {
        "astId": 3509,
        "contract": "contracts/Pool.sol:Pool",
        "label": "levels",
        "offset": 0,
        "slot": "0",
        "type": "t_uint32"
      },
      {
        "astId": 3514,
        "contract": "contracts/Pool.sol:Pool",
        "label": "filledSubtrees",
        "offset": 0,
        "slot": "1",
        "type": "t_mapping(t_uint256,t_userDefinedValueType(Field)4858)"
      },
      {
        "astId": 3519,
        "contract": "contracts/Pool.sol:Pool",
        "label": "roots",
        "offset": 0,
        "slot": "2",
        "type": "t_mapping(t_uint256,t_userDefinedValueType(Field)4858)"
      },
      {
        "astId": 3525,
        "contract": "contracts/Pool.sol:Pool",
        "label": "currentRootIndex",
        "offset": 0,
        "slot": "3",
        "type": "t_uint32"
      },
      {
        "astId": 3528,
        "contract": "contracts/Pool.sol:Pool",
        "label": "nextIndex",
        "offset": 4,
        "slot": "3",
        "type": "t_uint32"
      },
      {
        "astId": 4167,
        "contract": "contracts/Pool.sol:Pool",
        "label": "usdc",
        "offset": 8,
        "slot": "3",
        "type": "t_contract(IERC20)77"
      },
      {
        "astId": 4170,
        "contract": "contracts/Pool.sol:Pool",
        "label": "splitJoinVerifier",
        "offset": 0,
        "slot": "4",
        "type": "t_contract(SplitJoin16Verifier)4845"
      },
      {
        "astId": 4173,
        "contract": "contracts/Pool.sol:Pool",
        "label": "hash2Verifier",
        "offset": 0,
        "slot": "5",
        "type": "t_contract(Hash2Verifier)4851"
      },
      {
        "astId": 4176,
        "contract": "contracts/Pool.sol:Pool",
        "label": "noteVerifier",
        "offset": 0,
        "slot": "6",
        "type": "t_contract(NoteVerifier)4854"
      },
      {
        "astId": 4181,
        "contract": "contracts/Pool.sol:Pool",
        "label": "isNoteSpent",
        "offset": 0,
        "slot": "7",
        "type": "t_mapping(t_userDefinedValueType(Field)4858,t_bool)"
      },
      {
        "astId": 4185,
        "contract": "contracts/Pool.sol:Pool",
        "label": "noteCommitments",
        "offset": 0,
        "slot": "8",
        "type": "t_array(t_userDefinedValueType(Field)4858)dyn_storage"
      }
    ],
    "types": {
      "t_array(t_userDefinedValueType(Field)4858)dyn_storage": {
        "base": "t_userDefinedValueType(Field)4858",
        "encoding": "dynamic_array",
        "label": "Field[]",
        "numberOfBytes": "32"
      },
      "t_bool": {
        "encoding": "inplace",
        "label": "bool",
        "numberOfBytes": "1"
      },
      "t_contract(Hash2Verifier)4851": {
        "encoding": "inplace",
        "label": "contract Hash2Verifier",
        "numberOfBytes": "20"
      },
      "t_contract(IERC20)77": {
        "encoding": "inplace",
        "label": "contract IERC20",
        "numberOfBytes": "20"
      },
      "t_contract(NoteVerifier)4854": {
        "encoding": "inplace",
        "label": "contract NoteVerifier",
        "numberOfBytes": "20"
      },
      "t_contract(SplitJoin16Verifier)4845": {
        "encoding": "inplace",
        "label": "contract SplitJoin16Verifier",
        "numberOfBytes": "20"
      },
      "t_mapping(t_uint256,t_userDefinedValueType(Field)4858)": {
        "encoding": "mapping",
        "key": "t_uint256",
        "label": "mapping(uint256 => Field)",
        "numberOfBytes": "32",
        "value": "t_userDefinedValueType(Field)4858"
      },
      "t_mapping(t_userDefinedValueType(Field)4858,t_bool)": {
        "encoding": "mapping",
        "key": "t_userDefinedValueType(Field)4858",
        "label": "mapping(Field => bool)",
        "numberOfBytes": "32",
        "value": "t_bool"
      },
      "t_uint256": {
        "encoding": "inplace",
        "label": "uint256",
        "numberOfBytes": "32"
      },
      "t_uint32": {
        "encoding": "inplace",
        "label": "uint32",
        "numberOfBytes": "4"
      },
      "t_userDefinedValueType(Field)4858": {
        "encoding": "inplace",
        "label": "Field",
        "numberOfBytes": "32"
      }
    }
  }
}